:100874004C616D70204F6E0046616E204F6E0046D5
:10088400616E204F66660063686F6F736520312C5C
:06089400322C332C34006D
:0C08BE00758920758DFD759850D28E2232
:0808D6008F993099FDC29922AF
:0708DE003098FDC298AF99AC
:0108E50022F0
:06089A008B088A09890A9F
:1008A000E4FDFCAB08AA09A90A8D828C83120847D3
:0D08B000FF600A1208D60DBD00010C80E6A5
:0108BD002218
:100800001208BEE4F5801208DEAE07BE3104D280C5
:100810008005BE320AC2807BFF7A0879748018BED8
:10082000330AD2817BFF7A08797C800BBE340DC2FB
:10083000817BFF7A08798312089A80CA7BFF7A0845
:07084000798B12089A80BFBA
:030000000208CA29
:0C08CA00787FE4F6D8FD75810A02080072
:10084700BB010CE58229F582E5833AF583E0225066
:1008570006E92582F8E622BBFE06E92582F8E222B0
:0D086700E58229F582E5833AF583E49322CA
:00000001FF
